:020000040800F2
:10000000FC0F0020F13500006D3500006D3500005B
:100010006D3500006D3500006D3500006D35000058
:100020006D3500006D3500006D3500006D35000048
:100030006D3500006D3500006D3500006D35000038
:100040006D3500006D3500006D3500006D35000028
:100050006D3500006D3500006D3500006D35000018
:100060006D3500006D3500006D3500006D35000008
:100070006D3500006D3500006D3500006D350000F8
:10008000753500006D3500006D3500006D350000E0
:100090006D3500006D3500006D3500006D350000D8
:1000A0006D3500006D3500006D35000091350000A4
:1000B0006D3500006D3500006D3500006D350000B8
:1000C00000B50648016880200840C009002804D116
:1000D000034A106880210843106000BD10200240D0
:1000E0001020024000B51248016801200840002895
:1000F00000D0F8E70E48016820200840002805D10C
:100100000B48016820200143094801600848016844
:1001100010200840002806D1054801680420084046
:10012000002800D101E0FF2000E0012000BD00BF59
:100130000C20024000B50E4801680120084000284C
:1001400001D0012012E00A4801681020084000098F
:10015000002801D0032009E0054801680420084078
:100160008008002801D0022000E0002000BD00BF70
:100170000C20024000B583B00C46FF22034613401A
:100180001A0915460F2219461140030A0F221A4078
:10019000104611E0204A02921AE0204A029217E02B
:1001A0001F4A029214E01F4A029211E01E4A029274
:1001B0000EE01E4A02920BE0002DEBD0012DECD098
:1001C000022DEDD0032DEED0042DEFD0052DF0D073
:1001D00001228A400090019191B22246029801F0DA
:1001E00009FF01990098029A15462035072902D97E
:1001F00004350839FFE78C000F231A46A240D34389
:100200002A681A402A608A00034693402A681A43E3
:100210002A6003B000BD00BF000000480004004891
:1002200000080048000C0048001000480014004876
:1002300000B50148006800BDD401002081B000294C
:1002400004DA401C490001D14008400001B0704769
:1002500000B5C3B201F0A0FAFFF744FF30490870BF
:10026000012800D055E02F4A2F490A602F4A2E4915
:100270000A602F490A6820210A432D490A602C4947
:100280000A6840210A432A490A60FFF72BFF2449E4
:100290000870012831D126490A6820210A402449E2
:1002A0000A6023490A6810210A4321490A60012B88
:1002B0000CD1204B196801225200114319601D4BCB
:1002C000196801229200914319600BE0194B1968DB
:1002D0000122520091431960164B196801229200C5
:1002E00091431960FFF7FEFE0D49087010490A6836
:1002F00011490A400E490A600BE00D490A680F498E
:100300000A400B490A60FFF7DBFE02F0B1FFFF2055
:1003100005E0FFF7D5FE02F0ABFF0149087800BD0C
:10032000100100202301674508200240AB89EFCD72
:10033000102002401C200240EFFFFFFFDFFFFFFF05
:1003400000B50A4801680120400008404008002824
:1003500009D1064801680120800008408008002873
:1003600001D1002000E0012000BD00BF1C200240A0
:100370001049114801800F49104801800D4910486B
:1003800001801048018810480088411889B20F4840
:100390000088091889B20E480088091889B20D48EA
:1003A0000088091889B20C48008809180B48018098
:1003B000704700BFAAAA00008A0100208C0100201B
:1003C0008E01002086010020840100208801002089
:1003D0007E01002080010020820100209601002083
:1003E00081B0084A1068202108431060054A10684F
:1003F000042108431060034A10681021084310606C
:1004000001B070470C20024000B5FFF793FE014693
:100410000846012802D1FFF78DFEFAE700BD00FF74
:1004200000B5014608460B46024601301178002906
:1004300000D0F9E7C11A491E08B200BD81B070B4FE
:100440000024050C05D11024000402D1002922D07B
:100450001124050E01D108340002050F01D1241D1D
:100460000001850F01D1A41C8000002801DB641C61
:100470004000002908D020252E1B0D46F540A14044
:1004800000D001210D4328431B1B0106DB1D000A80
:10049000002B02DA002070BC0CE0DB051818801875
:1004A0000029F8DA401C4900F5D170BC4008400032
:1004B00000E0000001B0704700B51BE001221E49BA
:1004C0000A6025E002221C490A6021E004221A4940
:1004D0000A601DE0082218490A6019E01022164936
:1004E0000A6015E0154A14490A6011E0144A1249DD
:1004F0000A600DE00028E1D00128E3D00228E5D011
:100500000328E7D00428E9D01028EBD01128EDD03B
:1005100007220C490A600C490A6804210A430A4967
:100520000A600A490A6804211140002900D1F8E74D
:100530000749096888B200BD282401400000010075
:10054000000002001424014008240140002401405E
:100550004024014000B5F8B4114602464A40D40F89
:1005600042004B0052085B089A4202D202460846FB
:1005700011464A0041D0C30D4A00DDB2120EAD1A39
:10058000202D35DA49020126490AF6058A19002C80
:1005900000D0524220214F1B1146B9402A41101869
:1005A000C20D9A4221D0002C17D0012D08DCDA05AB
:1005B000801AD20F8019D207DBB2FFF73FFF1CE091
:1005C000DA05801A012340001B06C01880185A4221
:1005D0008018CA0F1043490007E04908C2071143B9
:1005E000DA05801A801940088018FFF727FE04E01A
:1005F00061000122511A001BF7E7F8BC00BDFFFFA4
:1006000000B586B0009101920293079C0794009A6E
:1006100001F00EFA04460594029A079801F008FAD0
:10062000059A01F049F90590009A019801F000FA45
:100630000390039A059801F08BF9029AFFF78AFF5D
:1006400006B000BD00B5C217C10F504010B440182D
:10065000CA0796230021FFF7F1FE10BC000000BD81
:1006600000B581B0009101460098C0B2FFE70A785A
:10067000824201D1084605E00B4601311A78002A72
:10068000F5D1002001B000BD00B581B00092024656
:100690000098C0B2C4B2431ED8B2002C0FD0137859
:1006A000002B04D00C781378A34200D104E0147816
:1006B0000B78E31A18B203E001320131EAE70020B7
:1006C00001B000BD81B010B4904223D00446144361
:1006D0006400002C1ED0440004D1944201D4A41C18
:1006E000012C17E04400240EFF2C07D15400240EE7
:1006F000FF2C03D1D40FC10F641A0BE0002A06D4DB
:10070000002802DC0024012C04E0904202E00028D2
:1007100000D5824210BC01B07047FFFF81B03C7829
:100720007F1C3470761CAE42F9D101B07047FFFFD8
:1007300000B581B000910146009880B20A461C3293
:10074000136880221A40D209002A00D1F6E70A462F
:100750002832106001B000BD81B03AB4140002D15B
:1007600002460C4813E013460246002020210124D3
:1007700009E01546CD409D4205D31D468D40521BD4
:1007800025468D4040190D46491E002DF1DC3ABC2E
:1007900002E000BFFFFFFFFF01B0704700B51F4D33
:1007A0002C782B461B7801332B70092C35D900246B
:1007B0001A4B1C701A4B1B78C3181B78012B15D1D0
:1007C000184D2B680124240023432B60002A06D0F7
:1007D000154D2B680124640023432B6005E0124D66
:1007E0002B6801246400A3432B600BE00D4D2B68A4
:1007F00001242400A3432B600B4D2B6801246400CB
:10080000A3432B60064D2C782B461B7801332B70AD
:100810008C4202D30024024B1C7000BD500100200A
:100820004C010020140400481404004800B5D3B261
:1008300000220D460146D8B282420BD28C1800230A
:1008400023708C18044B2B40DB0F23706D0001329A
:10085000D2B2F1E700BD00BF0000008000B581B05A
:10086000034619460091FFF7E3FC21490A4642433B
:1008700000990A601F490A68F02111400A091E49BF
:1008800089180878C0B21A1D1968C1401160194949
:100890000A681A4911400A0A174989180978C8B222
:1008A0001A460832191D0968C140116014490A68C6
:1008B00001211140002904D01A460C32114911605F
:1008C00014E0194608310A680F498A4207D91A46C6
:1008D0000C321946083109688908116006E01A4689
:1008E0000C321946083109684908116001B000BD91
:1008F000E803000004100240523800000007000026
:1009000034100240809FD50000366E0100B582B0E1
:100910000024A10041180A680C498A4213D00146FC
:100920003431A300C91809680A46C1180968009043
:10093000019408461146FFF71DFC019CA4B20098E3
:100940000134A4B2E5E702B000BD00BFFFFFFFFF26
:1009500000B506480068202201460548FFF766FFFB
:10096000002210210248FFF719FF00BD44000020BB
:100970009801002000B508480078002809D10748F0
:100980000078002805D106480078002801D1002011
:1009900000E0012000BD00BF6701002068010020C9
:1009A0006901002000B5064800682022014605487C
:1009B000FFF73CFF00220E210248FFF7EFFE00BDCB
:1009C000400000209801002000B508480078002869
:1009D00009D007480078002805D00648007800288C
:1009E00001D0002000E0012000BD00BF6F01002009
:1009F000700100207101002000B50848007800282F
:100A000009D107480078002805D106480078002859
:100A100001D1002000E0012000BD00BF74010020D2
:100A2000750100207601002000B5064800682022EC
:100A300001460548FFF7FAFE012217210248FFF799
:100A4000ADFE00BD480000209801002000B585B033
:100A5000C6B288B299B297B2069A079B089D012E3A
:100A60001DD11C8801341C801C88049400950193BE
:100A7000029203918AB2FFF76FFE80B2039989B2A6
:100A8000029A019B009D049CA4B2844207D30024D7
:100A90001C8000242C80012E01D101241470002E12
:100AA0001BD12C8801342C802C8804940095019350
:100AB00002928AB2B8B2FFF74FFE80B2029A019B4F
:100AC000009D049CA4B2844207D300241C8000240F
:100AD0002C80002E01D10024147005B000BDFFFF52
:100AE00000B589B000900191029203930A9CA4B2D0
:100AF0000A940B9CA4B20B940C9CA4B20C940D9C75
:100B00000D940E9C0E940F9C0F94039A0098FFF77F
:100B100021FD029AFFF7D6FD01DC012000E0002054
:100B200000280DD1039A019800F082FF029AFFF786
:100B3000C9FD01DB012000E00020002800D136E0E3
:100B40000E9C2488651C0E9C25800E9C248808948D
:100B50000C9A92B20A9880B2FFF7FEFD80B2089C10
:100B6000A4B2844223D300250E9C258000250F9C2F
:100B70002580039A0098FFF7EDFC029AFFF7A2FD8B
:100B800001DC012000E0002000280DD1039A01982B
:100B900000F04EFF029AFFF795FD01DB012000E017
:100BA0000020002800D102E000250D9C2570039A4A
:100BB000009800F03DFF029AFFF784FD01DB012061
:100BC00000E00020002842D0039A0198FFF7C2FC01
:100BD000029AFFF777FD01DC012000E000200028E9
:100BE00035D00F9C2488651C0F9C25800F9C248881
:100BF00008940C9A92B20B9880B2FFF7ADFD80B2C8
:100C0000089CA4B2844222D300250E9C2580002596
:100C10000F9C2580039A009800F00AFF029AFFF7C4
:100C200051FD01DB012000E0002000280FD0039AD5
:100C30000198FFF78FFC029AFFF744FD01DC0120C9
:100C400000E00020002802D001250D9C257009B08D
:100C500000BDFFFF00B583B0214801682148014372
:100C60001F4801604021102000F0C4FE00F066FE25
:100C70001D4A00F021FE1D4A00F06AFE02901C4849
:100C80000088FFF7DFFC01900298009101990A4665
:100C900000F0CEFE00991749086016480268164811
:100CA00000F00AFE134908601148018813480088C3
:100CB000401A80B2FFF7C6FC01900E480068009110
:100CC00001990A4600F044FE00990A490860094863
:100CD00002680B48FFF73EFC0649086003B000BD00
:100CE0000827014000008000000096430000A54353
:100CF000B8F7FF1F340000200000A042C2F7FF1F1A
:100D00000000F04100B50648006820220146054871
:100D1000FFF78CFD002219210248FFF73FFD00BDBF
:100D20004C0000209801002000B5064800682022F1
:100D300001460548FFF77AFD002217210248FFF718
:100D40002DFD00BD480000209801002000B50E4890
:100D500001680E4801430C4801602021112000F079
:100D600049FE00F0EBFD07460948008800F0E6FD6B
:100D7000084A00F0A1FD3A4600F0EAFD064A00F0FC
:100D80009BFD0649086000BD0827014000004000A7
:100D9000BAF7FF1F333353400000803E300000207D
:100DA00000B506480068202201460548FFF73EFDD1
:100DB00000221E210248FFF7F1FC00BD5000002078
:100DC0009801002000B50648006820220146054829
:100DD000FFF72CFD002212210248FFF7DFFC00BDC7
:100DE000540000209801002000B588B000900191C7
:100DF00002920393099CA4B209940A9CA4B20A9497
:100E00000B9C0B940C9C0C940D9C0D94029A0098D6
:100E1000FFF7A0FB019AFFF755FC01DC012000E081
:100E20000020002828D00C9C2488651C0C9C258060
:100E30000C9C248807940A9A92B2039880B2FFF718
:100E40008BFC80B2079CA4B2844215D300250C9C75
:100E5000258000250D9C2580029A0098FFF77AFBDB
:100E6000019AFFF72FFC01DC012000E000200028A0
:100E700002D001250B9C2570029A009800F0D8FD45
:100E8000019AFFF71FFC01DB012000E00020002891
:100E900028D00D9C2488651C0D9C25800D9C2488E1
:100EA00007940A9A92B2099880B2FFF755FC80B273
:100EB000079CA4B2844215D300250C9C25800025F4
:100EC0000D9C2580029A009800F0B2FD019AFFF770
:100ED000F9FB01DB012000E00020002802D0002502
:100EE0000B9C257008B000BD00B5064800682022A4
:100EF00001460548FFF79AFC002215210248FFF73A
:100F00004DFC00BD580000209801002000B50148AC
:100F1000007800BD6B01002000B506480068202263
:100F200001460548FFF782FC012219210248FFF71C
:100F300035FC00BD4C0000209801002000B50028C1
:100F400003D0012203490A7002E0002201490A701D
:100F500000BD00BF6C01002000B50446FFF74CFD4A
:100F600000281FD11349097800291AD1124A1368A1
:100F700011460968013111606422114661438B42B8
:100F80000FD300220C490A6001220A490A7001228B
:100F90000A490A7001220A490A7000F05DF900F05E
:100FA00075F905E0002204490A60012201490A702E
:100FB00000BD00BF48010020440100207201002054
:100FC0007301002000B5064800682022014605484C
:100FD000FFF72CFC012210210248FFF7DFFB00BDC8
:100FE000440000209801002000B506480068202237
:100FF00001460548FFF71AFC01220E210248FFF7BF
:10100000CDFB00BD400000209801002000B583B05A
:1010100002902349019100F0BFFB00F039FA214909
:101020000968084600F0F4F9FFF7A2F900200299D8
:10103000C9B2884222D2810009B28A1E12B219496D
:101040000968891800900846002100F0ABF9009863
:10105000C0B2019909888BB2820012B211490968A5
:1010600089180090084699B200F09CF90098C0B227
:10107000019902310191411CC8B2D8E7810009B23F
:101080008A1E12B20749096889180846002100F033
:1010900089F9FFF715F802F0EBF8012003B000BD65
:1010A0007E0100205C00002000B51C78002C15D0CB
:1010B00005880C88A54206D9168805880C882C1B43
:1010C000A4B23419148005880C88A54206D216886B
:1010D0000D8804882C1BA4B2341B148000BDFFFFB4
:1010E00000B585B2CFB20198C0B20299C9B2039AD5
:1010F000D2B22E4C25802E4E3578344624780134D9
:101100003470BD4231D32B4C2478002C2DD10025D6
:10111000274C2570284C257807242E462640F6B209
:1011200001242546B5402DB2204C24882C40A4B281
:10113000002C06D0214E346801256D002C4334600C
:1011400005E01E4E346801256D00AC4334601A4E34
:10115000357834462478013434709D4205D3002517
:10116000154C25700125134C2570124C2478012C48
:101170001AD1134E357834462478013434709542B0
:1011800012D30E4E346801256D00AC433460002547
:10119000084C257000250A4C25700025044C25704C
:1011A000002901D001F0A4FF00BD00BFE80100202C
:1011B0001C01002020010020180100201404004818
:1011C0001401002000B5024902480160FEE700BD9D
:1011D0000400FA050CED00E000B506480068202286
:1011E00001460548FFF722FB012212210248FFF7C2
:1011F000D5FA00BD540000209801002000B5094830
:101200000188094881420BD108480188064881427B
:1012100006D1074801880448814201D1012000E03D
:10122000002000BD8A010020AAAA00008C01002035
:101230008E01002000B506480068202201460548BE
:10124000FFF7F4FA01221E210248FFF7A7FA00BDBA
:101250005000002098010020094A1068012109006F
:1012600088431060074A10680121C9008843106054
:10127000054A10680121490088431060704700BF8B
:1012800014040048140400481404004800B5082061
:1012900001F02EFF00BDFFFF00B581B0C2B2224CAD
:1012A00022490B6800F078FA00200090D0B2009A32
:1012B000D2B2824207D2196889B221800433023443
:1012C0000132D2B2F5E71A490A881A4909888A1800
:1012D00092B219490988521892B2134909885218D2
:1012E00092B216490988521892B2154909885118C4
:1012F0008AB201F0BDFF0092FFF780FF009A92B220
:10130000002806D00F4909888A4201D1002008E050
:1013100001E0012005E00B4909888A4201D0012043
:10132000FFE701B000BD00BF7E0100205C0000208F
:101330008601002084010020880100208001002017
:10134000820100209601002000B5FEF7F9FF002879
:1013500006D100F09DF80120FEF77AFFFEF7B0FEFF
:1013600000BDFFFF00B50648006820220146054881
:10137000FFF75CFA012215210248FFF70FFA00BDC2
:10138000580000209801002000B5002803D0012259
:1013900003490A7002E0002201490A7000BD00BF43
:1013A0006B01002000B505468EB2FFF719F800F07A
:1013B0006FF8FFF729F8014600281FD1104C22686A
:1013C00001231A4322600F4A954214D30E4A9542D4
:1013D00011D82E80FFF718F80C4A136820221A4003
:1013E0005209002A06D0002804D1084C2268202384
:1013F0001A43226001E00020C04300E0084600BD1F
:101400001020024000000008FF7F00080C2002406E
:1014100000B50446FEF7E4FF00F03AF8FEF7F4FFEB
:10142000014600282CD1174B19680222114319607C
:1014300015490A6800210A4013490A6012490968DF
:101440000A46224310490A600E4B19684022114394
:10145000196000BFFEF7D8FF0C490A68202111402F
:10146000490900290BD0002809D1084B196820220E
:1014700011431960034B196802229143196000E07F
:10148000084600BD10200240142002400C200240FB
:1014900000B50748016880200840C009002805D031
:1014A00004490548016005490348016000BD00BFCB
:1014B000102002402301674504200240AB89EFCD94
:1014C00081B040004008C10D40020122400AD2050F
:1014D00080187F2901DA002007E0962903DC962294
:1014E000511AC84001E09639884001B07047FFFFAB
:1014F00000B5034600201A46FFF7E4F801DB01209F
:1015000000E00020002801D0002000E0184600BDC7
:1015100000B506460D46002E17D03278002A14D0AA
:101520002846FEF77DFFC2B229463046FFF7ACF8E9
:10153000002801D1304609E02A78D3B2721CD9B212
:101540001046FFF78DF80646E5E7002000BDFFFFD7
:1015500000B5012289B200F04DFD00BD00B584B098
:1015600069460846FFF77AF950490A68012189005F
:1015700011408908002905D04D4B1968012212013C
:10158000114319604B490A680121114000290CD010
:10159000494B19680122920791431960464B19681B
:1015A0000122D207914319601CE0029A43498A4202
:1015B0000CD9414B196801229207914319603E4BA7
:1015C00019680122D207114319600BE03A4B1968E0
:1015D0000122920711431960374B19680122D20783
:1015E0009143196036490A68012109001140002918
:1015F00000D0F7E7334B19680122D2071143196075
:1016000030490A680121C9071140C90F002900D0DB
:10161000F6E72D4B196801221200914319602B4BFC
:1016200019680122520091431960294B196801225F
:10163000920091431960274B19680122D20091430F
:101640001960254B196801221201914319601C4B46
:101650001968012212001143196020490A6801210A
:1016600009001140002900D1F7E71D4B196801223C
:101670009200914319601B4B19680122520191435A
:101680001960194B19680122520391431960174BD5
:1016900019680122920291431960154B19680122C1
:1016A000D2029143196004B000BD00BF082401407C
:1016B000082401403410024010240140003FAB01D7
:1016C000082401400824014014240140142401404E
:1016D000142401400C2401400C240140002401404A
:1016E0000C2401400C2401400C2401400C24014036
:1016F0000C24014000B515490140084600220BE0CA
:1017000013481CE013481AE0134818E0134816E089
:10171000134814E0134812E013498842F0D01349EB
:101720008842EFD012498842EED012498842EDD06B
:1017300011498842ECD011498842EBD0104610493B
:1017400009680A4602430E490A6000BD00FCFFFF1B
:10175000000002000000040000000800000010006B
:101760000000200000004000000000480004004885
:1017700000080048000C0048001000480014004811
:101780001410024000B5024600F006F8116889B254
:1017900001F06EFD88B200BD00B5EFF3108738464A
:1017A00072B600BD00B589B00690079108930A9CF7
:1017B000A4B20A940B9C0B9408246C442046FFF7B7
:1017C0004DF8334E34680125AD032C433460314D60
:1017D000314C2560314D324C2560324D324C256004
:1017E000324D334C2560049C00940B98FFF78EF823
:1017F000069C251D00242C60069C261D35680A9C2D
:10180000A4B22C4334600025069C2560089CA4B239
:10181000002C04D0089DADB2264C2C430894069CA5
:101820002568089CA4B22543069C2560069C256873
:101830000D242543069C2560069C2546083500247A
:101840002C60009D192428466043079CA200FEF7E7
:1018500083FF07466422FEF77FFF040101942609F7
:10186000642534466C433C1B2401204632306422FC
:10187000FEF772FF0F2405462540019C26462E43A5
:10188000069C25460C35B4B22C6009B000BD00BFE3
:1018900018100240211A0000D8010020FFFFFFFFAE
:1018A000DC010020FFFFFFFFE0010020FFFFFFFF42
:1018B000E40100200004000081B01146024670B42B
:1018C0004A40D30FDB07400034D04A002AD0010E33
:1018D000140E091900021202400A520A8418E50186
:1018E00004465443000A120A2E045043A419421914
:1018F000200CC543AA18120C01257F39521CAD03D8
:1019000052191204240400D0521C104301D4400088
:10191000491EC2B20C06C0092018401C4008802A8B
:1019200002D003E0002005E040084000002900DA72
:101930000020184370BC01B07047FFFF00B510B421
:10194000002296231146FEF779FD10BC00BDFFFF73
:1019500000B570B4140005D1000001D5224840E064
:1019600022483EE0114602464A40D50F40004A0058
:10197000ED0740085208002816D0002A14D0410074
:101980000C0E51000B0E41020120C0055202490A03
:10199000520AE41A091812187D34914201D3641CCA
:1019A00000E04900002C01DA00201AE000239142F7
:1019B00001D3891A0343400849000028F7D10029C0
:1019C0000AD0914202D10121C90705E0914201D21A
:1019D000012101E00121C943E005C0184019FEF7CB
:1019E0002DFC70BC04E000BF000080FF0000807F81
:1019F00000BDFFFF00B500260025C4B28BB29D429A
:101A000008D2E0B2FEF758FD820892B2B61801354E
:101A1000ADB2F4E79AB23046FEF79EFE00BDFFFF7E
:101A200000B581B20148FEF783FE00BD00380140D9
:101A300000B50121C9074A40FEF78CFD00BDFFFF3C
:101A400000B5034B08B40023FEF7DAFD01B000BD7A
:101A500000401C4600B581B00020FFF795FC1E49F0
:101A600008880090084600880130088023E01B4A5F
:101A7000106801214900084310602AE0174A1068E5
:101A8000012149008843106023E0144A10680121B5
:101A90004900084310601CE0104A10680121490009
:101AA0008843106000210C480180FFF7D5FB092016
:101AB00001F01EFB0DE0009989B20B29D7D0C8298F
:101AC000DCD0FF2005308142DFD0FF20553081423D
:101AD000E2D001B000BD00BF400100201404004866
:101AE00000B50120FFF750FC094A10680121C90028
:101AF00008431060074A10680121090088431060FC
:101B00000548FFF729FA01210448017000BD00BF14
:101B10001404004814040048B00400007B010020B5
:101B200000B582B00090CCB20192FFF735FE00986C
:101B3000FFF728FE87B2A04209D3174B9F4206D079
:101B400001F096FB0124019B1C70002022E0124B47
:101B50009F4212D1FFF79CFC0098FFF759FC00212F
:101B60000098FFF71FFC009B023300211846FFF787
:101B700019FC0024019B1C700CE0FFF789FC009805
:101B8000FFF746FC7B1C99B20098FFF70BFC002482
:101B9000019B1C7002B000BDFFFF000000B583B0C8
:101BA0006E460A25AD19754FFEF7B8FD0020FFF708
:101BB000EBFBFFF723FB002805D0714800780028D5
:101BC00001D000F03DFEFEF717FF00280AD0FFF716
:101BD00015FB002806D06A480078002802D00121B1
:101BE000684801706748007800283CD0FFF706FB82
:101BF000002838D062480078002834D0624A118822
:101C0000104600880130108019292BD35F4B1868CB
:101C10000121C9000140C90801204840C2B218682A
:101C20000121114003D00121C900084302E0012134
:101C3000C90088431860564B18680121090001400B
:101C400001204840C2B218680121114003D001218F
:101C50000900084302E001210900884318600021BF
:101C6000494801800BE0494A10680121C900084336
:101C70001060474A10680121090008431060454A76
:101C8000118810460088013010804348814200D8F6
:101C900072E000213F4801804048016840480160EF
:101CA0004048016840480160404801684048016080
:101CB0004048008800904048008801903F480088D4
:101CC000029030480078002814D136480068FFF7A9
:101CD000F7FB80B23849088030480068FFF7F0FB16
:101CE00080B23449088031480068FFF7E9FB80B2D0
:101CF0003249088001213248018064213148018045
:101D00006421314801801F480078002816D16846B8
:101D10002E4B2F4A01462748FFF7C6F90420684496
:101D20002A4B2C4A01462448FFF7BEF90820684494
:101D3000264B294A01462148FFF7B6F900211148F0
:101D4000017000210E480170FFF786FA1F480078E5
:101D500000280ED021480078002806D000211F4816
:101D60000170092001F0C4F902E0072001F0C0F978
:101D700002E0042001F0BCF903B000BD64380000AB
:101D80007C0100207D0100203C010020140400485B
:101D900014040048EC010020E803000000000020CB
:101DA00018000020040000201C0000200800002073
:101DB00020000020820100207E0100208001002000
:101DC0009001002092010020940100207201002067
:101DD000880100208401002086010020730100207A
:101DE00000B5FFF793F8002800D179E0414D424C4F
:101DF000424B0A2242494348006820B410B408B458
:101E000004B402B43E4B404A01464048FEF7ECFFA2
:101E100005B03F4D3F4C404B0A2239493F480068CE
:101E200020B410B408B404B402B4354B364A0146A9
:101E30003648FEF7D9FF05B0394D3A4C3A4B0A22E5
:101E40002F493A48006820B410B408B404B402B46E
:101E50002B4B2D4A01462D48FEF7C6FF05B0FEF775
:101E600089FD002802D00A2001F042F923480078B9
:101E7000002806D02E480178012001432C4801702B
:101E800007E02B4801780120C04300B201402848F8
:101E9000017021480078002806D0254801780220EA
:101EA00001432348017007E0214801780220C04324
:101EB00000B201401E4801701B480078002806D07F
:101EC0001B480178042001431948017007E01848B5
:101ED00001780420C04300B201401548017008E0B9
:101EE00000210648017000210B48017000210E48B6
:101EF000017000BDA4000020A000002067010020A8
:101F0000E80300000C000020000048430000FA45F0
:101F1000AC000020A8000020680100201000002074
:101F2000B4000020B000002069010020140000204F
:101F30003800002000B5064906480160064A1068CE
:101F400001214902084310600448FFF707FB00BD68
:101F5000FFFFFFFFD00100201810024000240140C5
:101F600000B5FEF731FD00283CD01AE0FEF71AFD5F
:101F700037E0FEF7EDFC34E0FEF724FF31E0FEF73A
:101F8000B3FF2EE0FEF70CFF2BE0FEF7BBFE28E0D0
:101F9000FEF7CAFE25E0FFF75FF9012001F0A8F87F
:101FA0001FE0134800780128E0D01148007802288B
:101FB000DFD00F4800780428DED00D4800780328D1
:101FC000DDD00B4800780728DCD0094800780628C7
:101FD000DBD0074800780528DAD0054800780028CB
:101FE000D9D004E0FFF738F9012001F081F800BDF5
:101FF0003C00002000B586B001910292A44B034042
:102000000493FFF777FB019B9BB2FF2B21D1049B2D
:102010001C68A04B20461840029C9F4B9C4212D14A
:102020009E4B04461C43049B1C60049B1D1D2C6896
:102030009B4B23402B60049B1D4608352C68994B15
:1020400023432B6021E1029B422B02D1049B1860A9
:102050001BE1019CA4B2944B9C4221D1049B1C68BF
:10206000904B23401846029C8B4B9C4212D18F4BC5
:1020700004461C43049B1C60049B1D1D2C688C4B58
:1020800023402B60049B1D4608352C68814B23435D
:102090002B60FAE0029B422B02D1049B1860F4E013
:1020A000019CA4B27F4B9C4217D1029C7A4B9C426C
:1020B0000CD1804C049B1C60049B1C1D00232360DE
:1020C000049B1C4608347C4B2360DEE0029B422BC1
:1020D00003D10024049B1C60D7E0029C0123234011
:1020E000002B02D0032007460FE0029C0823234068
:1020F000002B01D0022007E0029C04232340002B88
:1021000001D0012000E000200746029C6B4B2340D9
:10211000002B01D0032207E0029C694B2340002BD7
:1021200001D0012200E00022029C20232340002B4A
:1021300001D0012100E00021029CFF230133234054
:10214000002B02D00224204608E0029C802323407A
:10215000002B01D0012400E000242046002303933B
:10216000039B102B00D390E0039D01231C46AC4041
:10217000019B9BB22340A34200D082E0039B5D0001
:1021800003242346AB40DC43049B1B681C40049B98
:102190001C60039B5B003C469C40049B1B681C43EB
:1021A000049B1C60029C0C232340002B27D0049B23
:1021B0001E460836039B5D0003242346AB40DC43E8
:1021C000336823403360049B1D460835039B5B0046
:1021D00014469C402B6823432B60049B1E1D039DCB
:1021E00001242346AB40DC43336823403360049B27
:1021F0001D1D039B0C469C402B6823432B60049BB6
:102200001E460C36039B5D0003242346AB40DC4393
:10221000336823403360049B1D460C35039B5B00F1
:1022200004469C402B6823432B60029C08232340D8
:10223000002B26D0029C234B23401B0D0093039BB5
:10224000072B06D9049B24330593039B1E46083EA7
:1022500003E0049B20330593039EB5000F2423461F
:10226000AB40DC43059B1B681C40059B1C60009D2C
:10227000EDB2B3002C469C40059B1B681C43059B9C
:102280001C60039B013303936AE706B000BD00BFE7
:1022900000FCFFFF0000FFFF140008005555000080
:1022A00000FFFFFFFFFF000000FF0000000055558A
:1022B000FF00FFFF55555555FFFFFFFF00080800C1
:1022C000000400000000F00000B581B00090009A0A
:1022D00092B201211140002903D001213448FFF7B7
:1022E00037F9009A92B2022111404908002903D01F
:1022F00002212F48FFF72CF9009A92B204211140D5
:102300008908002903D004212948FFF721F9009A00
:1023100092B208211140C908002903D0082124489D
:10232000FFF716F9009A92B210211140090900290D
:1023300003D010211E48FFF70BF9009A92B220211A
:1023400011404909002903D020211948FFF700F95D
:10235000009A92B2402111408909002903D04021FE
:102360001348FFF7F5F8009A92B280211140C9098D
:10237000002903D080210E48FFF7EAF8009A92B2B4
:10238000012109021140090A002903D0012109484D
:10239000FFF7DEF8009A92B2012149021140490A82
:1023A000002903D002210348FFF7D2F801B000BD95
:1023B000000000480004004800B50120FEF7E4FFDB
:1023C0000120FEF7BBFDFEF7D5FA002800D142E060
:1023D000244A10680121C900084310601AE0FEF782
:1023E00003FE37E0FEF7EEFD34E0FEF7F5FE31E0E8
:1023F000FEF7B8FF2EE0FEF71DFF2BE0FEF78CFD89
:1024000028E0FEF711FB25E0FEF726FF092000F08B
:102410006FFE1FE0144800780128E0D012480078D1
:102420000228DFD0104800780428DED00E4800785B
:102430000328DDD00C4800780728DCD00A48007853
:102440000628DBD0084800780528DAD0064800784E
:102450000028D9D004E0FEF7FFFE092000F048FE76
:1024600000BD00BF140400483800002000B5019DE5
:102470002C4610B408B493B28AB201460248FFF762
:1024800091F902B000BD00BF0038014000B50F282F
:1024900006D10B490A6802210A4309490A600DE086
:1024A00010280BD30346103B59098A0005498C18A4
:1024B0001F210B40012211469940216000BD00BF41
:1024C00010E000E000E100E000B5404E404D414C1E
:1024D0000A23414A40494148006840B420B410B43E
:1024E00008B404B402B43E4B02463E493E48FEF7EF
:1024F000F7FA06B03D4E3E4D3E4C0A23364A364969
:102500003D48006840B420B410B408B404B402B428
:10251000334B024633493448FEF7E2FA06B0374EF1
:10252000374D384C0A232C4A2B493748006840B4B1
:1025300020B410B408B404B402B4294B02462949AB
:102540002948FEF7CDFA06B0FEF73EFA002802D081
:102550000B2000F0CDFD1F480078002808D02B4844
:1025600001780120C04300B201402848017005E015
:102570002648017801200143244801701D48007855
:10258000002808D0214801780220C04300B2014051
:102590001E48017005E01D480178022001431B48D8
:1025A000017018480078002808D0184801780420E5
:1025B000C04300B201401548017005E0134801789E
:1025C000042001431148017000BD00BFC800002075
:1025D000C40000206F010020E80300002400002058
:1025E0000000C84200007A4400C00F45D00000201F
:1025F000CC0000207001002028000020D80000201E
:10260000D4000020710100202C0000203C0000209C
:1026100000B50020FEF7B8FE00F0DAFA2B4A106889
:10262000012109000843106029490B8808460088E9
:10263000013008800DE0274A106801214900084355
:1026400010600AE0234A10680121490088431060A5
:1026500003E0012BEFD0332BF4D01F4A1188104632
:10266000008801301080FF20F53081420CD31B48D8
:102670000078002808D10021174801800021144863
:1026800001800121154801701448007801281BD1F0
:102690000D20FEF701FE01280BD1FEF7DDFD002124
:1026A0000E48017000210E480170022000F020FD4C
:1026B0000AE0002109480170FEF7CEFD012108481B
:1026C0000170052000F014FD00BD00BF1404004897
:1026D000040100201404004800010020FC00002038
:1026E0007201002000B50020FEF74EFE164A117858
:1026F0001046007801301070322907D300211248AB
:102700000170124A11780120484010700F4800787B
:1027100000280CD00E4A10680121C90088431060BF
:102720000C4A106801210900084310600BE0084AB8
:1027300010680121C90088431060064A1068012111
:1027400009008843106000BD080100200C01002032
:10275000140400481404004800B51148007800280B
:102760001DD010491048FEF7D3FE002809D00121E2
:102770000E48017019210C4800F04EFE00210C4853
:1027800001700C4801460848FEF7C2FE002806D03A
:102790001921054800F040FE00210548017000BDE8
:1027A000790100207D000020640000207A010020D3
:1027B000390000208500002001490248016070476F
:1027C000AAAA00000030004000B50446FEF7D2F887
:1027D000002805D0012216490A70002215490A6016
:1027E00013490978002922D0124A13681146096852
:1027F000013111606422114661438B4217DBFEF701
:10280000FBF8002803D000220A490A600FE00022EA
:1028100008490A60002206490A70012206490A7026
:10282000012206490A70FEF717FDFEF72FFD00BDD5
:10283000E0000020DC000020720100207301002075
:1028400000B5FEF7DBFC002800D138E01C4D1D4C24
:102850001D4B0A221D491E48006820B410B408B45C
:1028600004B402B4194B1B4A01461B48FEF7BCFADC
:1028700005B01A4D1A4C1B4B0A2214491A4800681D
:1028800020B410B408B404B402B4104B114A014689
:102890001148FEF7A9FA05B0144D154C154B0A2244
:1028A0000A491548006820B410B408B404B402B44E
:1028B000064B084A01460848FEF796FA05B000BDE7
:1028C000E8000020E400002074010020E80300007C
:1028D0000C000020000048430000FA44F0000020F3
:1028E000EC0000207501002010000020F8000020FE
:1028F000F4000020760100201400002000B5654897
:102900000078002800D1C3E0634A10680121C902A1
:102910000843106000216148017060480078162863
:102920000AD25E4A11785E484118002008701046AD
:10293000007801301070F0E7002159480170002143
:102940005848017058480068FEF7D2FDFEF7B8FD00
:1029500080B2010ACAB255490A70C1B25448017026
:1029600054480068FEF7C4FDFEF7AAFD80B2010AD4
:10297000CAB251490A70C1B250480170504800684B
:10298000FEF7B6FDFEF79CFD80B2010ACAB24D49C2
:102990000A70C1B24C4801704C480068FEF790FDC7
:1029A00080B2000AC1B24A48017048480068FEF788
:1029B00087FD80B2C1B24748017047480068FEF702
:1029C0007FFD80B2000AC1B24448017042480068ED
:1029D000FEF776FD80B2C1B24148017041480068FF
:1029E000FEF76EFD80B2000AC1B23F4801703D485B
:1029F0000068FEF765FD80B2C1B23C4801703C48FA
:102A000001783C4801703C4801783C4801703C48E2
:102A100001783C4801703C480078002801D1012130
:102A200000E000213948017039480078002801D1C0
:102A3000012100E000213748017037480078002864
:102A400001D1012100E00021344801700D213448FA
:102A500001700A21334801700021104801700F48AD
:102A6000007816280BD20D4801780D4840180078E0
:102A7000FEF7D6FF0949087801300870EFE700211A
:102A800004480170044A10680121C902884310609B
:102A900000BD00BF7A01002014000048940000200F
:102AA000B8010020B90100200C000020BA0100206C
:102AB000BB01002010000020BC010020BD0100204F
:102AC00014000020BE010020BF01002018000020DB
:102AD000C0010020C10100201C000020C201002014
:102AE000C301002020000020C4010020C5010020F7
:102AF00067010020C601002068010020C7010020F6
:102B000069010020C80100206F010020C9010020D8
:102B100070010020CA01002071010020CB010020BB
:102B2000CC010020CD01002000B581B001220F4969
:102B30000A700090FEF708FC0098C0B200280DD083
:102B400000230122062108B404B402B405230122A3
:102B500009211520FEF7C4FA03B004E0FEF77CFB60
:102B6000062000F0C5FA01B000BD00BF79010020C9
:102B700000B5104C104B114A1148016801200002A9
:102B80000840000A10B408B404B40A230D4A0D49E1
:102B9000FDF75CFF03B009480078002809D10A4816
:102BA0000078002805D1002108480170082000F0B5
:102BB0009FFA00BDBC000020B80000206A01002080
:102BC00010000048E80300006D01002072010020A1
:102BD00000B583B0984A1178104600780130107023
:102BE000022900D27FE100219348017093490878BF
:102BF000029008460078013008705DE1904901209C
:102C0000FEF7F8FEFEF79AFE8E4908608E480078BF
:102C100000282DD08D4802688A480068FDF752FDD3
:102C200001DD012000E00020002821D08748026853
:102C300084480068FEF7FCFE854AFDF743FD01DB92
:102C4000012000E00020002812D0804802687D4862
:102C50000068FEF7EDFE7F4AFDF734FD01DC012040
:102C600000E00020002803D0784801687548016022
:102C700074480068019078480068784AFEF768FE5A
:102C8000774AFEF719FE019AFEF716FE75490860AD
:102C900029E175480088FEF751FE019073480088CD
:102CA000FEF74CFE67490A680199009010460A46F3
:102CB0000099FEF7C5FE6E49086014E160490320E3
:102CC000FEF798FEFEF73AFE6A4908605E48007813
:102CD00000282DD06848026866480068FDF7F2FCBD
:102CE00001DD012000E00020002821D062480268B8
:102CF00060480068FEF79CFE554AFDF7E3FC01DBE7
:102D0000012000E00020002812D05B4802685948EA
:102D10000068FEF78DFE4F4AFDF7D4FC01DC012070
:102D200000E00020002803D05348016851480160AA
:102D300050480068019048480068484AFEF708FE7D
:102D4000474AFEF7B9FD019AFEF7B6FD4B49086008
:102D5000C9E04B480088FEF7F1FD01904948008822
:102D6000FEF7ECFD43490A680199009010460A46B7
:102D70000099FEF765FE44490860B4E0304904203C
:102D8000FEF738FEFEF7DAFD404908602E4800786D
:102D900000282DD03E4802683C480068FDF792FCB0
:102DA00001DD012000E00020002821D03848026821
:102DB00036480068FEF73CFE254AFDF783FC01DB40
:102DC000012000E00020002812D0314802682F487E
:102DD0000068FEF72DFE1F4AFDF774FC01DC0120A0
:102DE00000E00020002803D029480168274801603E
:102DF00026480068019018480068184AFEF7A8FDA8
:102E0000174AFEF759FD019AFEF756FD2149086061
:102E100069E021480088FEF791FD01901F48008875
:102E2000FEF78CFD19490A680199009010460A4680
:102E30000099FEF705FE33E0980000209C0000207A
:102E400000020000000000207B010020180000208C
:102E50000000803F000080403000002000C07F4420
:102E600000007A4424000020880100208201002014
:102E70000C000020040000201C000020280000207E
:102E8000840100207E0100201000002008000020A6
:102E9000200000202C00002086010020800100205E
:102EA000124908601FE0FDF751FF1CE0FDF7D2FE5C
:102EB00000210F48017016E00298C0B2002800D12E
:102EC0009CE6012800D1E4E6022800D1F6E60328BA
:102ED00000D13EE7042800D150E7052899D0062804
:102EE000E1D00728E2D003B000BD00BF14000020ED
:102EF0009C00002000B50020FEF746FA434A1178F6
:102F0000104600780130107041480078814207D3A4
:102F100000213E4801703F4A11780120484010705E
:102F2000FFF756FE3C4A11681046006801301060F9
:102F3000FF202D30814209D338480078002805D180
:102F4000012136480170192131480170314800785B
:102F500000280CD0324A10680121C90008431060D3
:102F6000304A106801210900084310600BE02C4A28
:102F700010680121C900884310602A4A10680121A5
:102F80000900884310602848007800283CD1234875
:102F90000078012838D125480068FEF791FA80B200
:102FA0002349088023480068FEF78AFA80B2224944
:102FB000088022480068FEF783FA80B22049088022
:102FC0000D20FEF723F80D20FEF766F901280ED13B
:102FD000FEF742F900211148017000210E480160FE
:102FE00032210B480170042000F082F80CE0FEF75B
:102FF00033F900210948017000210748016032219E
:1030000003480170FEF7DEF800BD00BF2C01002070
:103010003401002030010020380100206D01002023
:1030200014040048140400486A0100200000002035
:1030300088010020040000208401002008000020F6
:103040008601002000B50020FEF79EF9234A116892
:1030500010460068013010602148814231D8214972
:103060000B78084600780130087023E01E4A10688B
:1030700001210900084310601C4A10680121C900A1
:10308000884310601CE0184A106801210900884339
:103090001060164A10680121C900084310600FE053
:1030A000124A10680121C9000843106000210D4830
:1030B000017005E0012BD9D00B2BE4D0312BEFD0E0
:1030C0000AE0002107480170002104480160FEF772
:1030D000C3F8082000F00CF800BD00BF2801002054
:1030E0005046000024010020140400481404004845
:1030F00001490870704700BF3A0000200020234AB1
:103100001070002122480170002122480170002126
:1031100021480170012121480170002120480170DF
:1031200000212048017000211F48017000211F4824
:10313000017001211E48017001211E48017001210A
:103140001D48017000211D480170002010700021F1
:103150001B48017000211B48017000211A480170B2
:1031600000211A48017000211948017000211948F6
:1031700001700021184801700021184801700121D8
:103180001748017000211748017070476601002040
:103190006701002068010020690100206A01002009
:1031A0006B0100206C0100206D0100206E010020E9
:1031B0006F010020700100207101002072010020C9
:1031C00074010020750100207601002077010020A5
:1031D00078010020790100207A0100207B01002085
:1031E0007C0100207D010020002109480180002190
:1031F000084801800021084801800021074801801B
:10320000002107480180002106480180704700BF67
:103210007E01002080010020820100208401002026
:10322000860100208801002000B50D4A70210D485C
:10323000FEF7E0FE8222FF2101310B48FEF7DAFEA5
:10324000074A02210748FEF7D5FE054A092105482D
:10325000FEF7D0FE024A05490348FEF7CBFE00BD4B
:1032600014000800000400480000004800080000A6
:1032700000B5EFF31087384662B600BD81B0002478
:103280000027AD4503DCB54501DB2F466D463460B4
:10329000361DAE42FBD1AF4203DD3D462668361DEA
:1032A000F5E701B07047FFFF81B0194801680120C0
:1032B0000143174801601748016817480140154845
:1032C0000160134801681548014011480160104829
:1032D0000168134801400E4801600E48016811481A
:1032E00001400C48016010480168104801400E4838
:1032F00001600F4801680F4801400D4801600E4809
:1033000001680E4801400C48016001B0704700BFE1
:1033100000100240041002400CB8FFF8FFFFF6FE58
:10332000FFFFFBFFFFFFC0FF2C100240F0FFFFFF7D
:1033300030100240ACFEFFFF34100240FEFFFFFFE2
:1033400000B5FFF709FAFFF7D9FA304800780128ED
:1033500000D059E000212D480170FFF72DFAFFF74A
:1033600037FCFEF73DFDFFF703FCFFF7ADF82848FB
:10337000FFF72AFAFFF764FA1EE0FFF749F943E086
:10338000FFF7B0F940E00120FFF7CEFB3CE0FFF78C
:1033900059FE39E0FFF7AEFD36E0FEF7FFFB33E004
:1033A000FEF758FB30E0FEF79BFB2DE0FFF704F83B
:1033B0002AE0FEF7D5FD27E0164800780128DCD08A
:1033C000144800780228DBD0124800780528DAD0AB
:1033D000104800780628DAD00E4800780428D9D0A2
:1033E0000C4800780828D8D00A4800780728D7D099
:1033F000084800780928D6D0064800780A28D5D091
:10340000044800780B28D4D000BD00BF660100201E
:10341000100E00003A00002000B581B00024009199
:103420000146009880B2844205D20B1900221A701E
:103430000134E4B2F7E701B000BDFFFF00B50F4A69
:1034400010680121084310600C4801680220084000
:103450004008002800D1F7E709490A4801600A48F6
:103460000178F82001404907490F074801700749D2
:103470000448016006490348016000BD2410024071
:10348000555500000030004004300040CCCC000016
:10349000AAAA000000B50F4A106802210843106074
:1034A0000D4A106801218843106007210B48016014
:1034B0000B490C4801602020FEF7E8FF0A4A10681B
:1034C000012108431060044A10680121084310607C
:1034D00000BD00BF1C100240000400402804004052
:1034E0005FEA00002C0400400C04004000B50848CE
:1034F00001B40023002200210648FEF7B7FF01B007
:103500002D21054801602B20FEF7C0FF00BD00BF44
:103510005C370000802500000038014000B50948F4
:103520000068094AC821FEF7FBFA0748007800281E
:1035300003D10120FFF7DCFD02E00220FFF7D8FDF8
:1035400000BD00BF600000207701002000B5FEF73D
:10355000F1FC1A20FEF7B8FE034801680120014380
:103560000148016000BD00BF0824014000B5FEE72E
:1035700000BDFFFF044A106801218843106001214B
:1035800002480170704700BF10040040660100202F
:1035900000B510B4114801682020084020281AD135
:1035A0000F4802680F48007819280AD20D480178A0
:1035B0000D48401802700B480078411C0948017002
:1035C00009E000210748017019210748FFF724FF8F
:1035D00001210648017010BC00BD00BF1C3801402D
:1035E00024380140390000206400002078010020C8
:1035F00000F01CF800F0C2FC00F0A6F800F0A6F9FC
:10360000FFF77CFDFFF7F0FDFFF70EFEFFF79EFFD3
:10361000FFF740FFFFF76AFFFFF72AFEFFF70EFFF5
:10362000FFF77CFFFFF78CFEFCE7FEE700B581B0FB
:10363000324A334B334C344D344E35493548814250
:1036400006D935480168012001433348016005E08F
:1036500031480168314801402F480160FFF724FEDE
:103660002F4803602F4804602F48114601402F481F
:1036700001602F4805602F48066001201040002897
:1036800008D02A48016802200840002800D1F8E745
:10369000194600E019462848104000280AD00B4679
:1036A0002248016825480840002800D1F8E7114663
:1036B0001A4602E000911146009A2148084000286D
:1036C0000ED01A4801681E48014318480160174887
:1036D00001681C480840002800D1F8E7134600E0C4
:1036E00013460F4801680C200A46024099000C203E
:1036F0000840824200D0F4E701B000BD8100000123
:10370000020028000000000000000000810000000E
:1037100080BB0000C05D000000200240F8FFFFFFFA
:10372000041002402C100240FFFF0F000010024066
:10373000241002403410024000000100000002008A
:10374000000000010000000281B00249024801604F
:1037500001B0704780BB0000D401002009010000C7
:103760000A010000FFFFFFFF000000000000000052
:103770000000000000000000000000000000000049
:103780000000000000000000000000000000000039
:1037900018080000180800000000000000000000E9
:1037A0000000000000000000000000000000000019
:1037B0000000000000000000000000000000000009
:1037C000000000000000000000000080000000A0D9
:1037D00000004085000050A100800A85000000A87C
:1037E0000000008500740008007800080000000058
:1037F00000000000000000000000000000000000C9
:1038000000000000007265717565737400434F4ECF
:103810004E45435400FFFFFF000000000000000081
:103820000000000000000000000000000000000098
:103830000000000000000000000000000000000088
:103840000000000000000000000000000000000078
:103850000000000000000102030401020304060747
:103860000809FFFF00000000000000000000000049
:10387000000000000000FFFF0000000000FFFFFF4D
:103880000000000000FFFFFF0000000000FFFFFF3E
:10389000000000000000FFFF0000FFFF0000FFFF2E
:1038A0000000FFFF0000FFFF0000FFFF0000FFFF20
:1038B0000000FFFF0000FFFF0000FFFF0000FFFF10
:1038C0000000FFFF0000FFFF0000FFFF0000FFFF00
:1038D0000000FFFF0000FFFF0000FFFF0000FFFFF0
:1038E0000000FFFF0000FFFF0000FFFF0000FFFFE0
:1038F0000000FFFF0000FFFF0000FFFF0000FFFFD0
:103900000000FFFF00FFFFFF00FFFFFF00FFFFFFC2
:1039100000FFFFFF00FFFFFF00FFFFFF00FFFFFFB3
:1039200000FFFFFF00FFFFFF00FFFFFF00FFFFFFA3
:1039300000FFFFFF00FFFFFF00FFFFFF32FFFFFF61
:1039400000FFFFFF00FFFFFF00FFFFFF00B55B4E22
:103950005B4D5C4FFCF7E2FE5B4E5C4D5C4FFCF751
:10396000DDFE5C4E5C4D5D4FFCF7D8FE5C4E5D4D60
:103970005D4FFCF7D3FE5D4E5D4D5E4FFCF7CEFE16
:103980005D4E5E4D5E4FFCF7C9FE5E4E5E4D5F4F75
:10399000FCF7C4FE5E4E5F4D5F4FFCF7BFFE5F4E0F
:1039A0005F4D604FFCF7BAFE5F4E604D604FFCF715
:1039B000B5FE604E604D614FFCF7B0FE604E614D4C
:1039C000614FFCF7ABFE614E614D624FFCF7A6FE06
:1039D000614E624D624FFCF7A1FE624E624D634F35
:1039E000FCF79CFE624E634D634FFCF797FE634EFF
:1039F000634D644FFCF792FE634E644D644FFCF7D9
:103A00008DFE644E644D654FFCF788FE644E654D37
:103A1000654FFCF783FE654E654D664FFCF77EFEF5
:103A2000654E664D664FFCF779FE664E664D674FF4
:103A3000FCF774FE664E674D674FFCF76FFE674EEE
:103A4000674D684FFCF76AFE674E684D684FFCF79C
:103A500065FE684E684D694FFCF760FE684E694D23
:103A6000694FFCF75BFE694E694D6A4FFCF756FEE5
:103A7000694E6A4D6A4FFCF751FE6A4E6A4D6B4FB4
:103A8000FCF74CFE6A4E6B4D6B4FFCF747FE6B4EDE
:103A90006B4D6C4FFCF742FE6B4E6C4D6C4FFCF760
:103AA0003DFE6C4E6C4D6D4FFCF738FE6C4E6D4D0F
:103AB0006D4FFCF733FE6D4E6D4DDBE000000020D6
:103AC0003A000020183800003C0000203D00002093
:103AD0001E040000400000208D000020C8370000B8
:103AE0009000002091000020103900009400002078
:103AF000950000200C39000098000020990000205B
:103B00001C3900009C0000209D0000201839000096
:103B1000A0000020A2000020DC380000A40000204B
:103B2000A6000020E4380000A8000020AA00002021
:103B3000D8380000AC000020AE000020D4380000CF
:103B4000B0000020B2000020E0380000B4000020E7
:103B5000B6000020CC380000B8000020BA000020D9
:103B6000D0380000BC000020BE000020F838000063
:103B7000C0000020C2000020FC380000C40000206B
:103B8000C600002000390000C8000020CA00002044
:103B9000F4380000CC000020CE000020E8380000FF
:103BA000D0000020D2000020EC380000D40000201B
:103BB000D6000020F0380000D8000020DA000020F5
:103BC000C8380000DC000020E10000208838000038
:103BD000E4000020E6000020A0380000E8000020FB
:103BE000EA0000209C380000EC000020EE000020DD
:103BF000A8380000F0000020F2000020A4380000E7
:103C0000F4000020F600002098380000F8000020A2
:103C1000FA00002094380000FC000020FD00002085
:103C20002C3900000001002002010020BC380000F7
:103C30000401002006010020C03800000801002017
:103C400009010020303900000C0100200D01002086
:103C50002839000010010020110100202039000047
:103C60001401002015010020243900001801002053
:103C7000190100202A4FFCF751FD2A4E2A4D2B4FE7
:103C8000FCF74CFD2A4E2B4D2B4FFCF747FD2B4EDE
:103C90002B4D2C4FFCF742FD2B4E2C4D2C4FFCF79F
:103CA0003DFD2C4E2C4D2D4FFCF738FD2C4E2D4D4F
:103CB0002D4FFCF733FD2D4E2D4D2E4FFCF72EFDD5
:103CC0002D4E2E4D2E4FFCF729FD2E4E2E4D2F4FF3
:103CD000FCF724FD2E4E2F4D2F4FFCF71FFD2F4ECE
:103CE0002F4D304FFCF71AFD2F4E304D304FFCF763
:103CF00015FD304E304D314FFCF710FD304E314D3B
:103D0000314FFCF70BFD314E314D324FFCF706FDC4
:103D1000314E324D324FFCF701FD00BD704700BF00
:103D2000343900001C0100201D010020443900002E
:103D3000200100202101002048390000240100203A
:103D40002501002040390000280100202D0100201D
:103D5000783800003001002031010020383900009F
:103D600034010020350100203C39000038010020DA
:103D70003E01002070380000400100204201002078
:103D8000C4380000440100204901002080380000B0
:103D90004C0100204D010020083900005001002096
:103DA0005101002004390000540100205501002079
:103DB00014390000580100205A010020B8380000D2
:103DC0005C0100205E010020AC3800006001002092
:103DD00062010020B038000064010020660100206C
:103DE000B4380000FFFFFFFFFFFFFFFFFFFFFFFFF3
:103DF000FFFFFFFFFFFFFFFFFFFFFFFFFFFFFFFFD3
:103E0000FFFFFFFFFFFFFFFFFFFFFFFFFFFFFFFFC2
:103E1000FFFFFFFFFFFFFFFFFFFFFFFFFFFFFFFFB2
:103E2000FFFFFFFFFFFFFFFFFFFFFFFFFFFFFFFFA2
:103E3000FFFFFFFFFFFFFFFFFFFFFFFFFFFFFFFF92
:103E4000FFFFFFFFFFFFFFFFFFFFFFFFFFFFFFFF82
:103E5000FFFFFFFFFFFFFFFFFFFFFFFFFFFFFFFF72
:103E6000FFFFFFFFFFFFFFFFFFFFFFFFFFFFFFFF62
:103E7000FFFFFFFFFFFFFFFFFFFFFFFFFFFFFFFF52
:103E8000FFFFFFFFFFFFFFFFFFFFFFFFFFFFFFFF42
:103E9000FFFFFFFFFFFFFFFFFFFFFFFFFFFFFFFF32
:103EA000FFFFFFFFFFFFFFFFFFFFFFFFFFFFFFFF22
:103EB000FFFFFFFFFFFFFFFFFFFFFFFFFFFFFFFF12
:103EC000FFFFFFFFFFFFFFFFFFFFFFFFFFFFFFFF02
:103ED000FFFFFFFFFFFFFFFFFFFFFFFFFFFFFFFFF2
:103EE000FFFFFFFFFFFFFFFFFFFFFFFFFFFFFFFFE2
:103EF000FFFFFFFFFFFFFFFFFFFFFFFFFFFFFFFFD2
:103F0000FFFFFFFFFFFFFFFFFFFFFFFFFFFFFFFFC1
:103F1000FFFFFFFFFFFFFFFFFFFFFFFFFFFFFFFFB1
:103F2000FFFFFFFFFFFFFFFFFFFFFFFFFFFFFFFFA1
:103F3000FFFFFFFFFFFFFFFFFFFFFFFFFFFFFFFF91
:103F4000FFFFFFFFFFFFFFFFFFFFFFFFFFFFFFFF81
:103F5000FFFFFFFFFFFFFFFFFFFFFFFFFFFFFFFF71
:103F6000FFFFFFFFFFFFFFFFFFFFFFFFFFFFFFFF61
:103F7000FFFFFFFFFFFFFFFFFFFFFFFF00B5034E47
:103F8000034DFFF77BF900BD704700BF0000002024
:103F9000F0010020FFFFFFFFFFFFFFFFFFFFFFFF1C
:00000001FF
